:02000004085F93
:10B0000000B05F08FCFF5F0800000600200005019B
:08B010000401A018000000007B
:10B018001348144908B5884205D0134A824202D021
:10B02800124B121A98471248124A0021124B121A50
:10B03800984712481249884205D0124A824202D0E3
:10B048000A4B121A984710481049884205D0104AEE
:10B05800824202D0054B121A9847014808BD00BF2A
:10B0680098AA071048FE5F0818AB07102D0D11109D
:10B0780018AB0710FCAF0710A10E111058B23F0211
:10B08800A8B05F0860B23F0260B23F02B0B05F088C
:0CB09800F8FF3F0219B05F080000000044
:08B0A8009CB05F08F8F73F02BD
:10B0B00081F0004102E000BF83F0004330B54FEA69
:10B0C00041044FEA430594EA050F08BF90EA020FD6
:10B0D0001FBF54EA000C55EA020C7FEA645C7FEA69
:10B0E000655C00F0E2804FEA5454D4EB5555B8BF8C
:10B0F0006D420CDD2C4480EA020281EA030382EAFD
:10B10000000083EA010180EA020281EA0303362D8E
:10B1100088BF30BD11F0004F4FEA01314FF4801C61
:10B120004CEA113102D0404261EB410113F0004F73
:10B130004FEA03334CEA133302D0524263EB43032A
:10B1400094EA050F00F0A780A4F10104D5F1200EC8
:10B150000DDB02FA0EFC22FA05F2801841F1000123
:10B1600003FA0EF2801843FA05F359410EE0A5F1F7
:10B1700020050EF1200E012A03FA0EFC28BF4CF028
:10B18000020C43FA05F3C01851EBE37101F00045DE
:10B1900007D54FF0000EDCF1000C7EEB00006EEBEB
:10B1A0000101B1F5801F1BD3B1F5001F0CD3490875
:10B1B0005FEA30004FEA3C0C04F101044FEA4452CC
:10B1C00012F5800F80F09A80BCF1004F08BF5FEA53
:10B1D000500C50F1000041EB045141EA050130BD33
:10B1E0005FEA4C0C404141EB0101013C28BFB1F545
:10B1F000801FE9D291F0000F04BF01460020B1FA90
:10B2000081F308BF2033A3F10B03B3F120020CDA62
:10B210000C3208DD02F1140CC2F10C0201FA0CF040
:10B2200021FA02F10CE002F11402D8BFC2F1200CA5
:10B2300001FA02F120FA0CFCDCBF41EA0C0190405B
:10B24000E41AA2BF01EB0451294330BD6FEA0404A4
:10B250001F3C1CDA0C340EDC04F11404C4F120028F
:10B2600020FA04F001FA02F340EA030021FA04F3A1
:10B2700045EA030130BDC4F10C04C4F1200220FAF8
:10B2800002F001FA04F340EA0300294630BD21FA36
:10B2900004F0294630BD94F0000F83F4801306BFFC
:10B2A00081F480110134013D4EE77FEA645C18BFF0
:10B2B0007FEA655C29D094EA050F08BF90EA020F87
:10B2C00005D054EA000C04BF1946104630BD91EA7F
:10B2D000030F1EBF0021002030BD5FEA545C05D182
:10B2E0004000494128BF41F0004130BD14F58004C1
:10B2F0003CBF01F5801130BD01F0004545F0FE4135
:10B3000041F470014FF0000030BD7FEA645C1ABF69
:10B31000194610467FEA655C1CBF0B46024650EAA0
:10B32000013406BF52EA033591EA030F41F40021CC
:10B3300030BD00BF90F0000F04BF0021704730B552
:10B340004FF4806404F132044FF000054FF0000127
:10B3500050E700BF90F0000F04BF0021704730B5E8
:10B360004FF4806404F1320410F0004548BF4042BD
:10B370004FF000013EE700BF42004FEAE2014FEA12
:10B3800031014FEA02701FBF12F07F4393F07F4FED
:10B3900081F06051704732F07F4208BF704793F0F0
:10B3A0007F4F04BF41F40021704730B54FF4607403
:10B3B00001F0004521F000411CE700BF50EA010206
:10B3C00008BF704730B54FF000050AE050EA0102AF
:10B3D00008BF704730B511F0004502D5404261EB1F
:10B3E00041014FF4806404F132045FEA915C3FF460
:10B3F000D8AE4FF003025FEADC0C18BF03325FEAFD
:10B40000DC0C18BF033202EBDC02C2F1200300FAAD
:10B4100003FC20FA02F001FA03FE40EA0E0021FAD2
:10B4200002F11444BDE600BF10F8012B11F8013BF6
:10B43000012A28BF9A42F7D0D01A7047034613F862
:10B44000012B002AFBD1181A0138704770B502F0A1
:10B450002DFD0025054E064CA41BA408AC4200D1CE
:10B4600070BD56F8043B98470135F7E7CCFF3F0223
:10B47000F8FF3F0200F0C8BB08B500F0CBFABDE80A
:10B48000084002F0CBBC01F031BA01F02FBA01F054
:10B490003BBA0000744600B58DB02C22002101A8F3
:10B4A00003F0C7FF054B04940193054B02937B46C1
:10B4B000002101A8039301F0D7F8FEE72C000C004F
:10B4C00008F83F02704710B54FF0200C04460846BC
:10B4D00000218AB0CDE90023CDE902C10B4602AAC2
:10B4E000216801F097F80AB010BD0EB403B503ABA4
:10B4F00053F8042B32210193FFF7E5FF02B05DF80A
:10B5000004EB03B070470EB403B503AB53F8042B40
:10B510001E210193FFF7D7FF02B05DF804EB03B0E3
:10B5200070470EB403B503AB53F8042B28210193E5
:10B53000FFF7C9FF02B05DF804EB03B0704701608C
:10B54000027170472DE9F74F04468A460179006879
:10B550009146984603F0B8F82068322103689B684A
:10B5600098470021206803F0B3F80622217920686B
:10B5700003F0A7F8206803681B69984705282FDDAA
:10B58000206803685B6998470190206803685B69DD
:10B5900098470746206803685B6998470646206815
:10B5A00003685B6998478346206803685B6998472E
:10B5B00005462068EDB203685B699847019A45EA41
:10B5C0000025D3B243EA0727F3B243EA0B26AAF8D1
:10B5D0000070A9F80060A8F8005003B0BDE8F08F33
:10B5E00002490348FFF79DFFF7E700BF1DF83F0240
:10B5F00008AF071073B50E4615461C4601AA0DF19B
:10B6000006030DF10201FFF79DFFBDF90230DFEDEA
:10B61000106A07EE103AB8EEC77A27EE267ABDF91F
:10B62000043086ED007A07EE103ABDF90630B8EE28
:10B63000C77A07EE903AF8EEE77A27EE267A67EEB9
:10B64000A67A85ED007AC4ED007A02B070BD00BF25
:10B650000000803B38B504460D460179006803F0D0
:10B6600033F82068294603689B68984700212068C2
:10B6700003F02EF801222179206803F022F82068D7
:10B6800003681B69984720B1206803685B69984785
:10B69000C0B238BD70B504460E4615460179006843
:10B6A00003F012F82068314603689B6898472068C9
:10B6B000294603689B6898472068BDE8704003F0FE
:10B6C0000BB8000010B50446006802F0D3FF00215B
:10B6D0002046FFF7BFFFE528024605D00C480D497C
:10B6E000FFF703FF002010BD0B490948FFF70BFFD0
:10B6F000082231212046FFF7CDFF08222D212046C8
:10B70000FFF7C8FF02480549FFF7FDFE0120EAE701
:10B7100008AF071047F83F026CF83F0290F83F026D
:10B720007047436913B183690C301847704730B5CF
:10B7300085B00446089860B1406850B1856845B14D
:10B74000CDE90241CDE90023C4686A4601AB02A9F4
:10B75000A04705B030BD13B500210446084600F0EF
:10B760008FFC0023204601A9019300F0B3FC019C4B
:10B770000CB1012323710021012000F081FC2CB1C8
:10B78000236820469B6898470023237102B010BDB0
:10B790001FB5184C2368182B29DC03AB02AA01A99A
:10B7A0001548FFF727FF00F041FC144A2368116891
:10B7B0001B01C85013682268019903EB0212516003
:10B7C0002268029903EB02129160226803EB0213D4
:10B7D000039ADA6023680133236000F035FC084BDC
:10B7E00018602368132BC2BF0122064B1A7004B0E5
:10B7F00010BD00BF98AE071024AB07109CAA07101D
:10B800006CAE07104CAE071030B51368006885B0F9
:10B8100001938368D1E90045CDE902450BB903F0F6
:10B82000BDFCC36801AA02A9984705B030BD012A32
:10B8300002D1016000207047022A04BF0B68036038
:10B84000F8E703681268D1E900011847012A02D11C
:10B85000016000207047022A04BF0B680360F8E70C
:10B860000368184707B5806830B10023CDE900139D
:10B870001A46022100F03CFC03B05DF804FB000016
:10B8800010B50446094B036001F02EFC214601F07F
:10B8900077FE02F039FC02F02BFC2046044B40F806
:10B8A000043B01F0F7FC204610BD00BF10FA3F0238
:10B8B000F8F93F0210B50446FFF7E2FF20462421C5
:10B8C000FFF7E5FD204610BD10B58368044613B1AF
:10B8D000032201469847204610BD10B5044638B1F2
:10B8E000FFF7F2FF2046BDE810401021FFF7CFBD63
:10B8F00010BD000038B50F4B0446036083689BB150
:10B900006FF00041FFF7AEFF0021A06800F036FCA9
:10B91000237903F0FF0513B100F0A4FBF8E72946F3
:10B92000A06800F0C9FBA56004F10C00FFF7CCFF94
:10B93000204638BDE4F93F0210B50446FFF7DAFFB0
:10B9400020461C21FFF7A3FD204610BD10B50B4C6F
:10B95000227812B1022A0ED010BD094B1146586848
:10B9600000F00EFF10B101232370F5E705490648EA
:10B97000FFF7D7FDF0E70323F6E700BFD0AE0710CF
:10B980007CAF0710B1F83F0208AF07102DE9F04F68
:10B9900005468BB030B91A491A48FFF7C2FD0BB003
:10B9A000BDE8F08F0024DFF860B0DFF86090DFF8CA
:10B9B0006080A542F3DDDBF800704FEA041A07EB64
:10B9C0000416F068FFF7D8FCCDE90401B068FFF772
:10B9D000D3FCCDE902017068FFF7CEFCCDE9000190
:10B9E00057F80A20494606A801F044F9089A069932
:10B9F000404602F090FE06A801F09AF80134D8E71C
:10BA0000C2F83F0208AF0710A4AA0710FCF83F02D3
:10BA100050AE071070B5404E88B03378022B43D03B
:10BA2000032B5CD0012B3DD13C4B3D4D03AC02932D
:10BA30000FCD0FC42B683B4A2370128800233A486D
:10BA400002A902F0F3FF044638B338493848FFF73B
:10BA50005AFD4FF4FA7237493548FFF754FD00F0AC
:10BA6000F3FA0024344B354D1860354B28462146F7
:10BA70001C60FFF7F7FEA86840B16FF00043224654
:10BA8000009321462346019400F032FB0121072058
:10BA900003F067FA0223337004E02A492448FFF7D1
:10BAA00024FD347008B070BD274B1A7862B1274965
:10BAB000274A08681468106000220C602049086852
:10BAC0000A601A70FFF762FF00F0BEFA1A4B1B689B
:10BAD000C01A47F22F539842E4D90323DBE76FF0F3
:10BAE00000411648FFF7BEFE154B1A68002A05DD17
:10BAF0000121154A11701868FFF748FF0A4803F042
:10BB000067F80021072003F02CFA12490848FFF7D4
:10BB1000FAFC0023BFE700BFD0AE07107CFB3F025A
:10BB2000BCAE0710A0AA071050AE071010F93F02D4
:10BB300008AF071041F93F0294AE07109CAE071002
:10BB400098AE071054F93F024CAE07109CAA07109C
:10BB5000A4AA071071F93F0238B5002383608B68EF
:10BB600004460D462BB102229847EB68E360AB68B0
:10BB7000A360204638BD012A37B5044604D10B68BE
:10BB80000360002003B030BD022A0CD0032AF8D194
:10BB90000468002CF5D02046FFF796FE10212046C1
:10BBA000FFF775FCEDE7096810200191FFF76BFCCA
:10BBB000054610B10199FFF7CFFF2560E1E770B5A9
:10BBC0001426D0E90053044606FB0356AE4204D0C7
:10BBD000284600F0ADFF1435F8E7206800F094FE29
:10BBE000204670BD13B56C460B460246D0E90001F5
:10BBF00084E8030093E8030082E8030094E803006C
:10BC000083E8030002B010BD30B5002599B000F004
:10BC100051FE3B4B04A904933A4B08A807933A4BB7
:10BC20000693FFF799FF08A90CA8FFF795FF0CA949
:10BC300010A8FFF791FF10201695FFF724FC04468B
:10BC400060B10146856010A8FFF7CCFF129BA26887
:10BC5000A3601292139BE268E360139200252B4BC2
:10BC6000102017932A4B149416932A4B0395CDE971
:10BC70000135FFF708FC0446D8B1169B856033B147
:10BC8000022214A99847179BE360169BA360224BDE
:10BC90004FF4805003930021204A01AB029400F03E
:10BCA000FFFC30B12046FFF70FFE10212046FFF7C2
:10BCB000EEFB14A8FFF708FE10A8FFF705FE0CA87E
:10BCC000FFF702FE08A8FFF7FFFD04A8FFF7FCFD41
:10BCD0000121072003F034F90720002103F041F986
:10BCE0000F48FFF7EFFC28B90E490F48FFF7FDFB9F
:10BCF00000F008FF0D490C48FFF705FC19B030BDF6
:10BD0000FDBA3F02F3B93F02DFB93F02B9B93F02C2
:10BD100027BD3F0202000C008BBA3F02DFB83F0292
:10BD200024AB07108BF93F0208AF0710A9F93F02B7
:10BD30008842F8B504460D46164616D9904215D2EB
:10BD4000A2F11406751AA1F114072C44B7421CD0B5
:10BD50002CB13146204600F068FF337C2374304616
:10BD600000F0E6FE143E143CF0E70ED0B5420CD0D5
:10BD70002CB12946204600F058FF2B7C237428461E
:10BD800000F0D6FE14351434F0E7F8BD00232DE999
:10BD9000F041C0E9003383604F6804469F420E467D
:10BDA00024DD4FF0140808FB07F000F09FFD054666
:10BDB000E0B1D4E9001208FB0212FFF7B9FF2068D6
:10BDC00000F0A2FD2560A760D6E9007308FB0378A8
:10BDD000B84509D03946284600F041FF3B7C143570
:10BDE00005F8043C1437F3E7736863602046BDE848
:10BDF000F0810000F0B5002591B00021012000F095
:10BE00005DFC3C4B3C4AC3E900559A60022000F0BF
:10BE100039FCCDE90355059502F076F9374C064615
:10BE2000274603A906A8FFF7B1FF06A909A8FFF74F
:10BE3000ADFF334B09A947F8043B0CA8FFF7A6FF59
:10BE40000CAA1E21384601F07DFC0CA8FFF7B7FEB6
:10BE500009A8FFF7B4FE2B4B2662236006A8FFF764
:10BE6000AEFE294B236002F04FF94FF4165102F059
:10BE70003BF901F039F9214601F03CFB03A8FFF73B
:10BE80009EFE8F2335220A2100932048BF2302F013
:10BE9000BDF81F4802F0E6FE03F058F953220146B0
:10BEA0001C48FFF74CFB1C4B1C4C0C931C4B04F127
:10BEB0000C010F931B4B0CA80E931B4B2571236099
:10BEC000A5606561FFF78EFE62690E9B0E9263614D
:10BED000A2690F9B0221A3610F922346134ACDE969
:10BEE000005504F1080000F0D9F80CA8FFF7ECFCAD
:10BEF00011B0F0BD18AB07100000FFFF70AE0710C7
:10BF0000F8F93F0200FB3F0210FA3F02B8AE0710FB
:10BF100050AE071024AB071041B93F029CAE07108A
:10BF200011BA3F02FDB93F02E4F93F0207B93F02EF
:10BF300009B504480068044B03441B689B680293DE
:10BF400009BD000098AA07105000000009B5044878
:10BF50000068044B03441B68DB68029309BD0000C2
:10BF600098AA07105000000009B504480068044B67
:10BF700003441B685B69029309BD000098AA07107F
:10BF80005000000009B504480068044B03441B68D6
:10BF90009B68029309BD000098AA071014000000D6
:10BFA00009B504480068044B03441B68DB6802932E
:10BFB00009BD000098AA07101400000009B5044844
:10BFC0000068044B03441B681B69029309BD000011
:10BFD00098AA07101400000009B504480068044B33
:10BFE00003441B685B69029309BD000098AA07100F
:10BFF0005400000009B504480068044B03441B6862
:10C000009B69029309BD000098AA07105400000024
:10C0100009B504480068044B03441B685B6802933D
:10C0200009BD000098AA07100000000009B50448E7
:10C030000068044B03441B681B69029309BD0000A0
:10C0400098AA07100000000009B504480068044BD6
:10C0500003441B685B69029309BD000098AA07109E
:10C060000000000009B504480068044B03441B6845
:10C07000DB68029309BD000098AA07103000000099
:10C0800009B504480068044B03441B68DB6902934C
:10C0900009BD000098AA07103000000009B5044847
:10C0A0000068044B03441B681B6A029309BD00002F
:10C0B00098AA07103000000009B504480068044B36
:10C0C00003441B685B6A029309BD000098AA07102D
:10C0D0003000000009B504480068044B03441B68A5
:10C0E0009B6A029309BD000098AA07103000000067
:10C0F00009B504480068044B03441B68DB6A0293DB
:10C1000009BD000098AA07103000000009B50448D6
:10C110000068044B03441B685B6C029309BD00007C
:10C1200098AA07103000000009B504480068044BC5
:10C1300003441B689B6C029309BD000098AA07107A
:10C140003000000009B504480068044B03441B6834
:10C15000DB6C029309BD000098AA071030000000B4
:10C1600009B504480068044B03441B685B6D0293E7
:10C1700009BD000098AA07103000000009B5044866
:10C180000068044B03441B681B6F029309BD000049
:10C1900098AA07103000000009B504480068044B55
:10C1A00003441B685B69029309BD000098AA07104D
:10C1B0004C00000009B504480068044B03441B68A8
:10C1C0001B6A029309BD000098AA07104C000000EA
:10C1D00009B504480068044B03441B689B6A02933A
:10C1E00009BD000098AA07104C00000009B50448DA
:10C1F0000068044B03441B689B68029309BD000060
:10C2000098AA07102400000009B504480068044BF0
:10C2100003441B68DB68029309BD000098AA07105D
:10C220002400000009B504480068044B03441B685F
:10C230001B69029309BD000098AA071024000000A2
:10C2400009B504480068044B03441B685B6902930A
:10C2500009BD000098AA07102400000009B5044891
:10C260000068044B03441B689B69029309BD0000EE
:10C2700098AA07102400000009B504480068044B80
:10C2800003441B68DB69029309BD000098AA0710EC
:10C290002400000009B504480068044B03441B68EF
:10C2A0001B6A029309BD000098AA07102400000031
:10C2B00009B504480068044B03441B689B6A029359
:10C2C00009BD000098AA07102400000009B5044821
:10C2D0000068044B03441B68DB6A029309BD00003D
:10C2E00098AA07102400000009B504480068044B10
:10C2F00003441B681B6C029309BD000098AA071039
:10C300002400000009B504480068044B03441B687E
:10C31000DB68029309BD000098AA07101000000016
:10C3200009B504480068044B03441B689B690293E9
:10C3300009BD000098AA07101000000009B50448C4
:10C340000068044B03441B68DB69029309BD0000CD
:10C3500098AA07101000000009B504480068044BB3
:10C3600003441B681B6A029309BD000098AA0710CA
:10C370001000000009B504480068044B03441B6822
:10C380005B6A029309BD000098AA07101000000024
:10C3900009B504480068044B03441B689B6A029378
:10C3A00009BD000098AA07101000000009B5044854
:10C3B0000068044B03441B68DB6A029309BD00005C
:10C3C00098AA07101000000009B504480068044B43
:10C3D00003441B681B6B029309BD000098AA071059
:10C3E0001000000009B504480068044B03441B68B2
:10C3F0005B6B029309BD000098AA071010000000B3
:10C4000009B504480068044B03441B681B6C029385
:10C4100009BD000098AA07101000000009B50448E3
:10C420000068044B03441B681B6D029309BD0000A8
:10C4300098AA07101000000009B504480068044BD2
:10C4400003441B689B69029309BD000098AA07106A
:10C450002000000009B504480068044B03441B6831
:10C46000DB69029309BD000098AA071020000000B4
:10C4700009B504480068044B03441B681B6A029317
:10C4800009BD000098AA07102000000009B5044863
:10C490000068044B03441B689B6A029309BD0000BB
:10C4A00098AA07102000000009B504480068044B52
:10C4B00003441B681B6B029309BD000098AA071078
:10C4C0002000000009B504480068044B03441B68C1
:10C4D0009B6B029309BD000098AA07102000000082
:10C4E00009B504480068044B03441B68DB690293E8
:10C4F00009BD000098AA07101800000009B50448FB
:10C500000068044B03441B681B6A029309BD0000CA
:10C5100098AA07101800000009B504480068044BE9
:10C5200003441B681B68029309BD000098AA07100A
:10C530003400000009B504480068044B03441B683C
:10C540005B68029309BD000098AA07103400000040
:10C5500009B504480068044B03441B689B680293B8
:10C5600009BD000098AA07103400000009B504486E
:10C570000068044B03441B681B69029309BD00005B
:10C5800098AA07103400000009B504480068044B5D
:10C5900003441B685B69029309BD000098AA071059
:10C5A0003400000009B504480068044B03441B68CC
:10C5B0009B69029309BD000098AA0710340000008F
:10C5C00009B504480068044B03441B68DB69029307
:10C5D00009BD000098AA07103400000009B50448FE
:10C5E0000068044B03441B681B6A029309BD0000EA
:10C5F00098AA07103400000009B504480068044BED
:10C6000003441B681B6D029309BD000098AA071024
:10C610004800000009B504480068044B03441B6847
:10C620005B6D029309BD000098AA07104800000046
:10C6300009B504480068044B03441B68DB6E029391
:10C6400009BD000098AA07104800000009B5044879
:10C650000068044B03441B681B6F029309BD000074
:10C6600098AA07104800000009B504480068044B68
:10C6700003441B68D3F8D430029309BD98AA07106D
:10C680004800000009B504480068044B03441B68D7
:10C690005B68029309BD000098AA0710080000001B
:10C6A00009B504480068044B03441B681B6A0293E5
:10C6B00009BD000098AA07100800000009B5044849
:10C6C0000068044B03441B68DB6A029309BD000049
:10C6D00098AA07100800000009B504480068044B38
:10C6E00003441B68D3F88830029309BD98AA071049
:10C6F0000800000009B504480068044B03441B68A7
:10C70000D3F89430029309BD98AA071008000000DE
:10C7100009B504480068044B03441B68D3F8AC30E7
:10C72000029309BD98AA07100800000009B5044843
:10C730000068044B03441B685B68029309BD00005A
:10C7400098AA07102800000009B504480068044BA7
:10C7500003441B689B68029309BD000098AA071058
:10C760002800000009B504480068044B03441B6816
:10C77000DB68029309BD000098AA0710280000009A
:10C7800009B504480068044B03441B681B69029305
:10C7900009BD000098AA07102800000009B5044848
:10C7A0000068044B03441B685B69029309BD0000E9
:10C7B00098AA07102800000009B504480068044B37
:10C7C00003441B689B69029309BD000098AA0710E7
:10C7D0002800000009B504480068044B03441B68A6
:10C7E000DB69029309BD000098AA07102800000029
:10C7F00009B504480068044B03441B681B6A029394
:10C8000009BD000098AA07102800000009B50448D7
:10C810000068044B03441B681B6B029309BD0000B6
:10C8200098AA07102800000009B504480068044BC6
:10C8300003441B685B6B029309BD000098AA0710B4
:10C840002800000009B504480068044B03441B6835
:10C850001B6C029309BD000098AA07102800000075
:10C8600009B504480068044B03441B685B6C0293E1
:10C8700009BD000098AA07102800000009B5044867
:10C880000068044B03441B685B6D029309BD000004
:10C8900098AA07102800000009B504480068044B56
:10C8A00003441B689B6D029309BD000098AA071002
:10C8B0002800000009B504480068044B03441B68C5
:10C8C000DB68029309BD000098AA07102C00000045
:10C8D00009B504480068044B03441B68DB6B0293F2
:10C8E00009BD000098AA07102C00000009B50448F3
:10C8F0000068044B03441B681B68029309BD0000D9
:10C9000098AA07100400000009B504480068044B09
:10C9100003441B685B68029309BD000098AA0710D6
:10C920000400000009B504480068044B03441B6878
:10C930009B68029309BD000098AA0710040000003C
:10C9400009B504480068044B03441B685B6A029302
:10C9500009BD000098AA07100400000009B50448AA
:10C960000068044B03441B68DB6A029309BD0000A6
:10C9700098AA07100400000009B504480068044B99
:10C9800003441B68DB6B029309BD000098AA0710E3
:10C990000400000009B504480068044B03441B6808
:10C9A0001B6C029309BD000098AA07100400000048
:10C9B00009B504480068044B03441B685B6C029390
:10C9C00009BD000098AA07100400000009B504483A
:10C9D0000068044B03441B689B6D029309BD000073
:10C9E00098AA07100400000009B504480068044B29
:10C9F00003441B68DB6D029309BD000098AA071071
:10CA000004000000002240681146FFF7F1BE00223A
:10CA100040681146FFF708BF00224068FFF7F6BEE6
:10CA20000022406881F00101FFF7D4BE0023406876
:10CA30001A461946FFF7C0BE002340681A46194639
:10CA4000FFF7ACBE002240681146FFF799BE0022F6
:10CA500040681146FFF778BE002202214068FFF7C8
:10CA600081BE002340681A46FFF760BE0322024BD6
:10CA70005A60024A1A607047D4AE071028FA3F0283
:10CA80000B6803604B68436013B15A6801325A6007
:10CA9000704738B5046805467CB16368013B636044
:10CAA0005BB9236820469B689847A368013BA36055
:10CAB0001BB923682046DB689847284638BD00002C
:10CAC0000022024BC3E900229A607047DCAE0710D7
:10CAD00010B5044608462170FFF702FD00232046EA
:10CAE000636010BD07B50B4600210246009101208E
:10CAF0008C21FFF70DFE03B05DF804FB014600201A
:10CB0000FFF7F0BF0020FFF7F9BF0000022200206E
:10CB1000044B1A60044B054AC3E900009A60FFF712
:10CB2000B1BD00BFF4AE0710E8AE07100000FFFF74
:10CB300010B504460068FFF7E7FE204610BD10B5AB
:10CB40000446006808B1FFF7DFFE0023C4E90133A3
:10CB5000236010BD38B504460D4600680131FFF76B
:10CB6000E1FE10B1C4E90005012038BD10B503682D
:10CB7000044623B143688B4201D3012010BD2046F7
:10CB8000FFF7E8FF0028F9D0A368002BF5D1226851
:10CB90001370F2E737B50D46114601920446FFF7D0
:10CBA000E5FF019A28B92046FFF7C9FF204603B0E8
:10CBB00030BD2946A260206802F014FC00212268E2
:10CBC000A368D154F2E7002313B50446C0E900334B
:10CBD0008360037341B108460191FEF72FFC019970
:10CBE00002462046FFF7D6FF204602B010BD38B5FA
:10CBF000054600680C4670B16A688B689A4208D393
:10CC0000096831B102F063FCA368AB600023A36044
:10CC100038BDFFF779FE23682B6063686B60A368FB
:10CC2000AB600023C4E90033F1E7002310B50446EC
:10CC3000C0E9003383600373FFF7D9FF204610BDBE
:10CC4000884210B5044605D00B682BB18A68194696
:10CC5000FFF7A0FF204610BDFFF771FFFAE70023A2
:10CC600010B50446C0E9003383600373FFF7E8FFA3
:10CC7000204610BD0EB470B587B00BAD55F8042B2F
:10CC800004462B46052104A801920395FFF758FEA0
:10CC900006460B492046FFF796FF31462046FFF730
:10CCA00065FF206830B12B46019A711C0395FFF790
:10CCB00047FEA060204607B0BDE8704003B0704753
:10CCC000DEFA3F0210B543680446013B436063B996
:10CCD00003689B689847A368013BA3602BB923684E
:10CCE0002046BDE81040DB68184710BD70B504460B
:10CCF000D0E9005305EB0316AE4204D02846FFF7F7
:10CD000017FF1035F8E72068FFF7FEFD204670BDDD
:10CD1000002302480360FFF7F9B900BFF8AE07101F
:10CD200010B5044680680368DB689847E3681844D8
:10CD3000E06010BDF8B506460D4600248F18BD42D0
:10CD40000CD0336830469B6815F8011B9847031ECA
:10CD500001DB1C44F3E7002C08BF1C462046F8BD4D
:10CD6000704710B504461021FEF791FB204610BD18
:10CD700013B50446084659B10191FEF75FFB024620
:10CD8000204623680199DB6802B0BDE810401847CF
:10CD900002B010BD03689B6818470023012A98BFA2
:10CDA0000A2230B58BB08DF8243009AC0D46B1FBAA
:10CDB000F2F101FB125303F0FF03092B94BF303350
:10CDC0003733DBB2AA4204F8013DEFD92146FFF721
:10CDD000CFFF0BB030BD10B50446FFF735F9E0606A
:10CDE000236820465B699847002808DAFFF72CF98A
:10CDF000E368C01AA3689842F2D34FF0FF3010BD29
:10CE00002DE9F04107460C460D468E18B542A5EBBC
:10CE1000040807D03846FFF7DEFF031E02DB05F8E3
:10CE2000013BF3E74046BDE8F0817047084611B189
:10CE30000B685B681847704770477047704738B594
:10CE400004460D4600682E2102F037FB2368C31A02
:10CE50002B6023B1037803B10130236820601846AA
:10CE600038BD10B504460421FEF711FB204610BD65
:10CE700010B504460421FEF70AFB204610BDFFF75B
:10CE800061B908B5FEF7D0FAB0FA80F0400908BDE4
:10CE9000704710B50C4601F037F9844205D101F016
:10CEA00033F9BDE8104001F023B902F0A3F8844241
:10CEB00005D102F09FF8BDE8104001F07ABB2CB11B
:10CEC00023682046BDE810405B68184710BD13B5C5
:10CED000044608460191FEF7B1FA02462046019940
:10CEE00002B0BDE8104001F0FBBA13B50446084695
:10CEF0000191FEF7A3FA0246204623680199DB68F8
:10CF000002B0BDE81040184707B503688DF8071058
:10CF10000122DB680DF10701984703B05DF804FBBF
:10CF20002DE9F74F4FF0140AD0E900841746454623
:10CF30000AFB04F40093174BA4105C43002C21DD82
:10CF400066100AFB06F005EB0009B9F804B03A4692
:10CF50005F4528BF5A462858019102F0C0FA0028C0
:10CF60004FF0010301990BD15F4503D1009A137073
:10CF70003446E3E7FCD9A61B09F11405013EF7E7A7
:10CF8000F9DBF5E7A5EB08050248AD10684303B0EF
:10CF9000BDE8F08FCDCCCCCC7FB50369057E019187
:10CFA00003B3F9B1002600F10C04039603A901A80C
:10CFB000FFF745FF0146A8B10DF10B032046039A88
:10CFC0008DF80B60FFF7ACFF9DF80B3053B1236871
:10CFD000142404FB0034B4F906300834002BA8BF35
:10CFE000DDB2E3E7284604B070BD0EB4F0B58CB0F6
:10CFF00000AF07F1440555F8042B04462B462021C9
:10D0000007F110007A60FD60FFF79AFC1F287A682C
:10D010001AD900F1080323F007036E46ADEB030DA8
:10D02000411C2B466846FD60FFF78AFC021E04DDAA
:10D03000236869462046DB689847B5463037BD46C9
:10D04000BDE8F04003B070470028F7D023680246DF
:10D05000DB68204607F110019847EFE710B5084C50
:10D06000D4E88F3FDB0709D42046FFF7AFFC28B197
:10D070002046FFF7B9FC034802F0A6F9024810BDAC
:10D0800000AF0710E9CF3F02A8AA071010B5084C5F
:10D09000D4E88F3FDB0709D42046FFF797FC28B17F
:10D0A0002046FFF7A1FC034802F08EF9024810BDAC
:10D0B00004AF071041D03F02ACAA071038B50025D5
:10D0C0000446C0E90055C0E904558560856140F813
:10D0D000245FFFF71BF8FFF7C1FFE061FFF7D6FF02
:10D0E00025732062204638BD10B50A4CD4E88F3F26
:10D0F000DB070CD42046FFF769FC40B10648FFF778
:10D10000DDFF2046FFF770FC044802F05DF902489D
:10D1100010BD00BFFCAE07100CAF07100DD83F02CA
:10D120000023024A02490348FFF790BAF5D53F02AF
:10D1300081D53F0201D53F0200231A461946184601
:10D14000FFF784BA37B504468D686846FFF798FC48
:10D150006A462946204601F0E3F801A8FFF799FC4A
:10D16000204603B030BD37B50446CD686846FFF7AA
:10D1700087FC6A462946204601F0AEF801A8FFF771
:10D1800088FC204603B030BD37B504460D696846BB
:10D19000FFF776FC6A462946204601F046F801A8CA
:10D1A000FFF777FC204603B030BD000070B58AB0B1
:10D1B0000D46014604A8FFF7C5FF144E04A801F070
:10D1C000C7F8E8B1684604A9FFF7CDFF31460298D9
:10D1D000FFF757FE044610B12C1E18BF012401A80A
:10D1E000FFF757FC002CE9D0684604A9FFF7CCFFF5
:10D1F000684601F050F8286001A8FFF74AFCDDE717
:10D2000005A8FFF746FC0AB070BD00BF84FA3F02D4
:10D2100037B50C46134920461546FEF705F950B9B7
:10D2200000F072FF4FF4165100F05EFF03B0BDE84E
:10D23000304000F069BF20460B49FEF7F5F878B999
:10D240004FF4165301A928460193FFF7AFFF01F0F1
:10D25000D1FE019901F0AAF901F0CCFE03B030BD76
:10D260000020FBE789FA3F0290FA3F0270B51426CE
:10D27000D0E90053044606FB0356AE4205D005F143
:10D280000800FFF7F3FF1435F7E72068FFF73CFBD2
:10D29000204670BD10B504460C30FFF7E7FF20466E
:10D2A000FFF724FD204610BD10B50446034B40F89F
:10D2B000043BFFF7EFFF204610BD00BFF8F93F0227
:10D2C00010B50446FFF7F0FF20462421FEF7DFF8F3
:10D2D000204610BD10B50446024B0360FFF7E4FF83
:10D2E000204610BD18FB3F0210B50446FFF7F2FFC1
:10D2F00020462421FEF7CBF8204610BD0A6810B561
:10D3000002604A6842600022C0E9022202618C6821
:10D310008A608460CC68CA60C4600C690A61046178
:10D3200010BD0022C0E90022826010B50C680A60BE
:10D3300004604C684A6044608C688A60846010BDF8
:10D3400010B5044603681868FEF70AFF204610BDB2
:10D350002DE9F04F87B003931C4B80465B688946EC
:10D36000C3F3080316466BB9FFF7BEFE044600F18F
:10D370002403406A0593FFF782FD237B2BB105A8A8
:10D38000FFF7DEFF07B0BDE8F08F01235FFA89F9F0
:10D390002373D4E9005305EB830AAA4512D055F84C
:10D3A000047B3146381DFFF7F7FD8145F5D3039A1D
:10D3B0003B680092D3F808B04A46334641463846A7
:10D3C000D847EAE700232373D9E700BF00ED00E068
:10D3D0002DE9F74F9B461A4B80465B688946C3F39D
:10D3E000080316466BB9FFF77FFE044600F12403DD
:10D3F000406A0193FFF743FD237B2BB101A8FFF7A0
:10D400009FFF03B0BDE8F08F0123F6B22373D4E988
:10D41000005305EB830A55450ED055F8047B594659
:10D42000381DFFF7B9FD8642F5D33B684A464146B1
:10D430003846DB689847EEE700232373DEE700BF3A
:10D4400000ED00E02DE9F341164B05465B680F4601
:10D45000C3F308031BBBFFF747FE044600F1240398
:10D46000406A0193FFF70BFDD4E90063462406EB05
:10D470008308B04509D101A8FFF762FFA542B4BFF8
:10D480000020012002B0BDE8F08156F8040B3946B7
:10D490000430FFF781FD8442A8BF0446E9E700207D
:10D4A000F0E700BF00ED00E0F8B5D0E901539D4280
:10D4B00004460E460DDB6F1C002F006804DDB9002A
:10D4C000FFF730FA18B9F8BDFFF71EFA0020206008
:10D4D000A7602768626807EB85019200A2EB8502CE
:10D4E000081D01F08CFF47F82560636801200133B7
:10D4F0006360E8E737B5044600F12403406A01930E
:10D500000D46FFF7BCFCD4E9003203EB82029342E4
:10D5100019460AD009680433A942F8D101A8FFF7D7
:10D520000FFF0025284603B030BD29462046FFF7EF
:10D53000BBFF05460028F1D06368012B01D1FFF73E
:10D54000EFFD01A8FFF7FCFEECE70B4670B50446C3
:10D55000D0E9000200EB820282420FD001461D6832
:10D5600051F8046BAE4207D1521A01F048FF012076
:10D570006368013B636070BD0846EDE70020FAE791
:10D580001FB5044600F12403406A01910393FFF79D
:10D5900076FC204601A9FFF7D8FF18B163680BB9E4
:10D5A000FFF7CAFD03A8FFF7CBFE04B010BD182398
:10D5B00070B50446D0E9045603FB0656AE4215D0BA
:10D5C000204605F11001FFF7C0FF63680BB9FFF7B4
:10D5D000B3FDE06929690368DB689847696919B197
:10D5E000206A0368DB6898471835E7E71826D4E90E
:10D5F000045306FB0356AE4204D02846FFF798FAC0
:10D600001835F8E70023636170BD73B50446FFF772
:10D6100093FD04F12403606A0193FFF730FC204678
:10D62000FFF7C5FF01A8FFF78BFE606A08B1FEF7A0
:10D630007BFDD4E90453182606FB0356AE4204D002
:10D640002846FFF775FA1835F8E72069FFF75CF907
:10D650002068FFF759F9204602B070BD0148FFF776
:10D66000D4BF00BF0CAF07108842F8B504460D4682
:10D67000164615D9904214D2A2F11406751AA1F1DA
:10D6800014072C44B7421AD01CB131462046FFF78C
:10D6900035FE06F10800FFF7E9FD143E143CF1E702
:10D6A0000DD0B5420BD01CB129462046FFF726FE0F
:10D6B00005F10800FFF7DAFD14351434F1E7F8BD81
:10D6C0008842F8B504460D46164614D9904213D246
:10D6D000A2F11006751AA1F110072C44B74218D018
:10D6E0001CB131462046FFF7A0FA3046FFF720FA7A
:10D6F000103E103CF2E70CD0B5420AD01CB12946CE
:10D700002046FFF792FA2846FFF712FA1035103438
:10D71000F2E7F8BD70B50E1E054611DD3001FFF7CA
:10D72000E5F8044658B1D5E9001201EB0212FFF703
:10D73000C7FF2868FFF7E8F801202C60AE6070BDD5
:10D740000024F6E72DE9F04F90460023462295B0DD
:10D750000391D8F8041004469942C0E90033C0E9A7
:10D760000233C0E90433CDE9083302760A9323DC9F
:10D77000D8E90057142303FB0757AF423BD0294693
:10D780000BA8FFF752FA0BA90FA8099EFFF74DFA55
:10D79000DDE9091399421BDA089B099A03EB061687
:10D7A000314603EB021206F11000FFF789FFEEB9D4
:10D7B000099B0133099311E008A8FFF7ABFF00288C
:10D7C000D6D108A8FFF792FA204615B0BDE8F08F31
:10D7D000013108A8FFF79EFF0028DDD10FA8FFF751
:10D7E000A7F90BA8FFF7A4F91435C6E730460FA92F
:10D7F000FFF71BFADCE700264FF01409CDE90B66B2
:10D800000D96DDE908239E427CDA3301D358069356
:10D810000BB90136F5E70023079309FB06F30BADBF
:10D82000029307A906A8FFF70AFB82460028F0D05A
:10D830004FF0000301468DF817302846079A0DF186
:10D840001703FFF76DFB9DF817700190002F4AD169
:10D85000BDF81C30CDE91177ADF840304FF6FF73BD
:10D86000CDF83CA0ADF842301397D5E90132934290
:10D8700017DB03F1010ABAF1000F30DD09FB0AF0F2
:10D88000FFF734F8834660B3D5E9001209FB0212B2
:10D89000FFF7EAFE2868FFF737F8C5F800B0C5F8CB
:10D8A00008A02B68019A09FB023A6A68514609FBF5
:10D8B00002320AF11400FFF7D7FEBAF1000F03D0CD
:10D8C00050460FA9FFF71AFD6B6801336B6011A872
:10D8D000FFF7CCFC3FB10BA8FFF7C8FC71E7BB46D4
:10D8E000D8E70127F3E7019B2D6809FB0355069B49
:10D8F0001B782BB9D8F80030029A13441B7CEB80BC
:10D9000008358EE72168226062686360A368099227
:10D910000A9A0A93E368A2600B9A0B932369E26068
:10D920000C9A0C93636922610D9A0D93039B0891E5
:10D9300062612376CFE70000F0B50446264617461D
:10D9400087B00D4668461946FEF720FA0B4B69462C
:10D9500046F8043B03A8FEF719FA394603AA3046F5
:10D96000FFF7F0FE03A8FEF72AF96846FEF727F94D
:10D970002046034B2562236007B0F0BDF8F93F0253
:10D9800000FB3F02F0B50F4685B038461C491646ED
:10D990001D460A9CFDF748FDC0B9A4B1294601A85F
:10D9A000FFF7BFFC2420174901F0F4FB054630B116
:10D9B00001AB32462146FFF7BFFF134B2B6001A896
:10D9C000FEF7FDF82C46204605B0F0BD38460F495D
:10D9D000FDF72AFD90B9002CF5D0294601A8FFF7E4
:10D9E000A0FC2420074901F0D5FB05460028E6D01D
:10D9F0003246214601ABFFF79FFFE0E70024E2E754
:10DA000098FA3F0240FD3F0218FB3F029CFA3F029A
:10DA1000014B024A1A60704708AF0710ADFA3F0287
:10DA20002DE9F047089DD0F8209004460E46174691
:10DA3000984600F069FB81454DD02B79190704D534
:10DA400020466A695449FFF7D0FAB8F1000F0DD0AB
:10DA50005B212046FFF758FA41462046FFF745FA7A
:10DA6000236802222046DB684C4998472B79DA0765
:10DA700024D5D5F808802F21404601F044FD08B197
:10DA800000F1010841462046FFF72FFA2B799B074A
:10DA900008D53A212046FFF737FA2046EA68404980
:10DAA000FFF7A3FA2A79236812F0040F20464FF0FB
:10DAB0000202DB6814BF3B493B4998472B79580762
:10DAC0001DD529690B461A4613F8010B60B12028B1
:10DAD00008D11946F7E7354801F04DF90028ACD0D8
:10DAE000BDE8F0872828EED12368521A2046DB686B
:10DAF0009847236804222046DB682D499847002177
:10DB00003846FEF795FD01462046FFF7EEF92368FB
:10DB100002222046DB68244998471EB13146204640
:10DB2000FFF7E3F92B7913F0300F2CD0236821494C
:10DB3000DB680222204698472B79D9060AD523684C
:10DB4000072220461C49DB6898472046AA691B49E2
:10DB5000FFF74BFA2B799A0611D5DB0605D523681A
:10DB600002222046DB680F49984723682046144963
:10DB70000A22DB6898472046E969FFF7B6F95D217C
:10DB80002046FFF7C1F923682046BDE8F04702228E
:10DB9000DB680C49184700BFB1FA3F02B8FA3F02F0
:10DBA0003CFC3F02BBFA3F02C0FA3F0284AF0710C1
:10DBB000BEFA3F02C3FA3F02C6FA3F02CEFA3F0264
:10DBC000D1FA3F02DCFA3F022DE9F0410446076A30
:10DBD0000D46164600F098FA874207D0206A324672
:10DBE00003682946BDE8F041DB681847034801F0A7
:10DBF000C2F80028F2D0BDE8F08100BF84AF071062
:10DC00002DE9F04385B0D0F8209005460F469046A8
:10DC10001E460C9C00F078FA814505D1494801F078
:10DC2000AAF8002840F08A804FF000092B6A464A83
:10DC30006846CDE9023900928DF8049000F0B1FBFE
:10DC400049464046FEF7F4FC8046404901226846BA
:10DC500000F036FC4146FFF73AF93FB13C4901225A
:10DC6000684600F02DFC3946FFF731F93EB13949DD
:10DC70000122684600F024FC3146FFF728F9237999
:10DC8000DF070ED5A6682F21304601F03CFC00B11D
:10DC9000461C31490122684600F012FC3146FFF76C
:10DCA00016F923799E0707D52C490222684600F011
:10DCB00007FCE16800F082FB2379580714D5266938
:10DCC00033461F4613F8012B2AB1202A01D11E46E4
:10DCD000F7E7282AF5D102222149684600F0F0FB37
:10DCE0003146BA1B00F0FCFB2379190707D51D4903
:10DCF0000122684600F0E4FB616900F071FB2379C2
:10DD0000DA0607D518490422684600F0D9FBA16954
:10DD100000F054FB23799B0607D514490622684678
:10DD200000F0CEFBE169FFF7D2F8684600F023FB74
:10DD3000286A022203680E49DB68984705B0BDE8EF
:10DD4000F08300BF84AF071074FA3F028EFA3F02DF
:10DD5000DFFA3F02C7FE3F02E1FA3F02E3FA3F0269
:10DD6000E6FA3F02E9FA3F02EBFA3F02F0FA3F021D
:10DD7000DCFA3F02024B1A68024B1A60704700BF80
:10DD8000B0AA071034AF071010B5044B0446036067
:10DD9000806908B1FEF796FF204610BD64FC3F0283
:10DDA00010B50446FFF7F0FF20461C21FDF76FFB7E
:10DDB000204610BD0022014B9A60704738AF071013
:10DDC000014B1860704700BFB4AA071008B50F4B8D
:10DDD00043B100F099F903681B699847002801DDF9
:10DDE00000E000BF0A4B43B101F004F903681B696E
:10DDF0009847002801DD00E000BF064B0BB101F0A1
:10DE00003FF9054B0BB101F071F908BD00000000AE
:10DE100000000000000000000000000008B5FFF74F
:10DE2000D5FFFEF711F9014B186008BDE0AF0710F0
:10DE30000548064A08B5121A054901F0D3FA054B00
:10DE4000054A1A6008BD00BF00B4071004B40710EB
:10DE5000C8FE5F0800B407101E1C279A002307B5F0
:10DE60001A466FF077010093FEF744FC03B05DF8AB
:10DE700004FB000007B543880A2B08D0502B0BD1B8
:10DE8000094B1B684BB103B05DF804EB1847FFF773
:10DE9000E5FF03B05DF804FB00231A466FF077013D
:10DEA0000093FEF727FCF4E74CAF0710002110B5F4
:10DEB0001148FEF77DFD114B1A68114B9A420CBFB9
:10DEC000012200220F4B1A7001D0FFF7B1FFFEF7BD
:10DED0009FF8044601F0B6FA0B4B13B1204600E060
:10DEE00000BF00210848FEF7F3FCBDE81040002108
:10DEF0000648FEF7F1BB00BF71DF3F0200B4071018
:10DF00001E1C279A48AF07100000000025E03F02C2
:10DF1000704710B504461821FDF7B9FA204610BD28
:10DF2000F0B5037D0E46062B4FF000048DB000F1D6
:10DF3000040712D000F1080515F8011D0A22304629
:10DF4000FEF72BFFAF42044419D0002CF4D02E2151
:10DF50003046FEF71FFF0444EEE72F236A4639469A
:10DF60000A208DF80040FEF717F96846FDF766FABB
:10DF70003368024669463046DB68984704462046C7
:10DF80000DB0F0BD10B50446044B1122002140F83D
:10DF9000043B01F04EFA204610BD00BF7CFB3F025F
:10DFA0000346074A10B543F8042B01F1100251F85B
:10DFB000044B914243F8044BF9D10A781A7010BD12
:10DFC0007CFB3F02037D042B04D14068003818BF5E
:10DFD00001207047062B07D143683BB983682BB9F2
:10DFE000C3681BB90069F1E7002070470120704742
:10DFF00010B59DF8084044EA032343EA0242042393
:10E0000042EA01614160037510BD000013B5044C84
:10E0100004609DF810400094FFF7EAFF02B010BDC5
:10E020007CFB3F0207B5064B0360CB7800938B78EF
:10E030004A780978FFF7DCFF03B05DF804FB00BF06
:10E040007CFB3F02417470477047704708B5002160
:10E05000007CFEF7A7FA40EAE07008BD08B5012190
:10E06000007CFEF79FFA40EAE07008BD08B5007C2E
:10E07000FEF78AFA20EAE07008BD08B5007CFEF7DA
:10E0800075FA20EAE07008BD13B50446007C0191E2
:10E09000FEF77AFA0028019901DC607C20B1207C2F
:10E0A000FEF78EFA20EAE07002B010BD007CFEF7A9
:10E0B00095BA10B504461421FDF7E9F9204610BDC4
:10E0C00010B54FF47A73044608460021C4E90113E1
:10E0D000044B20742360012311466374FEF71CFA7D
:10E0E000204610BD90FB3F020022007CFEF722BAC2
:10E0F000007CFEF72DBA10B504461422002101F071
:10E1000098F9204610BD000010B588B003A8FFF7AD
:10E11000F2FF0C4CD4E88F1F11F001010FD1204603
:10E120000191FEF753FC019948B103AA0648FFF795
:10E13000C7FF2046FEF758FC044801F045F90248A5
:10E1400008B010BD50AF071054AF0710F9E13F02FF
:10E15000012200F1100313F8101C1846012908D100
:10E1600053F8041C02EB4102013A03F11003F2D10F
:10E170007047022904BF53F8041C5218F4E70EB488
:10E18000F0B588B0102100AF07F1340555F8042B25
:10E1900004462B4678187A60FD60FEF7D1FB0F2805
:10E1A0007A681AD900F1080323F007036E46ADEB35
:10E1B000030D411C2B466846FD60FEF7C1FB021EA5
:10E1C00004DD2368694620469B689847B54620379A
:10E1D000BD46BDE8F04003B070470028F7D0236883
:10E1E00002469B68204607F110019847EFE738B5D3
:10E1F0000B68044603604D6843689D4208D015B122
:10E200006B6801336B60606808B1FEF75BFD6560A9
:10E2100038BD07B503688DF8071001229B680DF122
:10E220000701984703B05DF804FB0B461146002236
:10E2300010B50446C0E9002283600BB9204610BD2A
:10E24000FFF7D5FFFAE78368EBB11A78032A1AD8EB
:10E25000DFE802F00417021B0520704702685B68C4
:10E260005268D05C2D2812D0A0F13003092B0ED9B2
:10E2700074280ED066280CD0A0F16E035842584185
:10E280007047062070470020704704207047032025
:10E2900070470220704710B50446FFF7D4FF0228EC
:10E2A0000ED0C31EDBB2012B14D82268A3685068BD
:10E2B0005B680A22BDE810400021184401F0BAB999
:10E2C0002268A36852685B68D05CA0F1740358426E
:10E2D000584110BD0020FCE738B500230446C0E9D2
:10E2E00000330E48C4E90203A9B10B78032B06D012
:10E2F0008BB9136858684B68C35C6E2B07D01368E2
:10E300004D6858688B6828445B1BA060E360114629
:10E310002046FFF76CFF204638BD00BFDEFA3F0203
:10E3200038B500250B4604461146C0E90055C0E942
:10E330000255C0E904554BB11A78012A06D103F100
:10E340001002DB6882604361FFF751FF204638BD51
:10E3500010B54369044663B18068013BE06010304A
:10E36000A0602061636113B1FFF7F2FEA06001209D
:10E3700000E0184610BD10B57D210446FFF749FFA7
:10E3800001232046237110BD08B50379012B02D06B
:10E39000022B04D008BD2C21FFF73BFFFAE73A21FE
:10E3A000FAE710B50446FFF7EFFF20467B21FFF7A1
:10E3B00030FF00232046237110BD000013B5044632
:10E3C0000191FFF7E1FF23682046DB68019A0349CA
:10E3D000984701232046237102B010BD3CFC3F0248
:10E3E00013B504460191FFF7CFFF23682046DB6891
:10E3F000019A0349984701232046237102B010BDBA
:10E40000BCFB3F022DE9F0470D4690462221044611
:10E410002F46FFF7FEFEDFF8A490A8444745BA4612
:10E420003DD017F8016B222E06D05C2E04D030466A
:10E4300000F0D0FF0028F1D12368294620469B68D0
:10E44000AAEB050298475C212046FFF7E2FE0D2E5D
:10E450000AD8072E1CD9A6F10803052B18D8DFE827
:10E4600003F00D0F11171315222E01D05C2E0FD1C2
:10E4700031462046FFF7CDFE3D46CFE76221F8E763
:10E480007421F6E76E21F4E76621F2E77221F0E7E6
:10E490002368324649462046DB689847ECE7BD4290
:10E4A00005D02368294620469B687A1B984722217D
:10E4B0002046FFF7AEFEBDE8F08700BFBFFB3F027E
:10E4C00013B50446CDE90021FFF75EFFDDE9002129
:10E4D0002046FFF797FF02232046237102B010BDAC
:10E4E00013B50446CDE90021FFF74EFFDDE9002119
:10E4F0002046FFF787FF01232046237102B010BD9D
:10E5000070474174704708B5007CFDF7D1FE20EAE2
:10E51000E07008BD08B5007CFDF784FE20EAE070DD
:10E5200008BD08B5007CFDF799FE40EAE07008BD23
:10E5300008B5007CFDF784FE40EAE07008BD007C71
:10E54000FDF79ABE37B5457C04462DB1207C03B05B
:10E55000BDE83040FDF758BE007C0191FDF7A8FEF4
:10E5600000280199F2DC284603B030BD10B50446FE
:10E570001421FCF78CFF204610BD000010B54FF4AD
:10E580007A730446084611460022C4E90123044B6D
:10E590002074236001236374FDF7A6FE204610BD9E
:10E5A000D0FB3F020023007CFDF790BE0022FFF766
:10E5B000F9BF007CFDF71ABE007CFDF76BBE70470B
:10E5C000F8B5064615460C468F18BC4206D033688F
:10E5D00030469B6814F8011B9847F6E72846F8BDBB
:10E5E0000022007CFDF7B8BE0021007CFDF7C2BE12
:10E5F0000021007CFDF7CCBE0021007CFDF7D6BEDB
:10E600000021007CFDF7E0BE10B504461421FCF7A4
:10E610003EFF204610BD0022C0E9002218220280E1
:10E620000A7802714A688260CA68C2600A7A026126
:10E630000A6942617047000038B5044615464FF438
:10E640007A730022C4E90123094B08462174236030
:10E650002946FDF7D5FEBF3008D16B69DB0705D52C
:10E660006868FEF751F9E868FEF74EF9204638BDB4
:10E6700004FC3F020023007C1A461946FDF742BE07
:10E6800010B5044686B06846FFF7C5FF002269460C
:10E69000207CFDF7C3FE06B010BD7FB58DF80410D9
:10E6A00000214FF0640C5B1A18BF0123CDE904C1AF
:10E6B00001A902928DF80C30FFF7E2FF07B05DF878
:10E6C00004FB0123FFF7E9BF0022007CFDF728BE11
:10E6D0000022007CFDF732BE0121FFF7F9BF0000E8
:10E6E000FF210022044B0120C3E9001264211A61BA
:10E6F000C3E90201704700BF68AF071013B5036894
:10E700008DF807101C6C01224FF0FF330DF107014B
:10E71000A04702B010BD10B403681C6C4FF0FF336B
:10E72000A4465DF8044B604713B5134602688DF8A4
:10E730000710146C0DF107010122A04702B010BDB3
:10E7400010B543690446B3F88620B3F884309A4282
:10E7500008D06369B3F88420511CA3F884101344D3
:10E76000187910BD03681B6998470028F1D14FF054
:10E77000FF30F6E7704743691868C043C00F704721
:10E7800070470000064B10B5994200F10C0405D00B
:10E79000084600F007FD002808BF0024204610BDF1
:10E7A00064FA3F0210B50446AC21FCF770FE204627
:10E7B00010BDAC21FCF76BBE2DE9F0414FF0000815
:10E7C0001C4686B0C0F8048005460E4617464146F2
:10E7D000102202A800F02DFE631C09D04FF47A73BA
:10E7E000B4FBF3F203FB12445C43CDE9022804942A
:10E7F00010236869009341F2050240F6FF7100683A
:10E8000002ABFDF719FE002807DAFEF7B5F803683A
:10E8100000206B6006B0BDE8F081686900233A46CD
:10E8200031460068FDF740FE031EEEDB1846F1E7B7
:10E8300030B5044687B06846FFF7F4FB01AD0434F9
:10E840000FCD0FC42B68237007B030BD70B50446E0
:10E8500006464D69044B8C3544F8043B0FCD0FC47C
:10E860002B683046237070BD7CFB3F022DE9F043DE
:10E870000D4600249846036893B01B6B0646174666
:10E88000984728466B46224621460094FDF75EFBDA
:10E890000546002863D1009B002B4BD05B69002B01
:10E8A00048D006A8FFF76EFB009B5C696378022BDB
:10E8B00004D1211D06A8FFF7BBFF26E00A2B24D1B7
:10E8C0001122294601A800F0B4FDA368002B38D01E
:10E8D00004F108030DF1040C1834624618685968F5
:10E8E000083303C2A3429446F7D1062301A90CA81A
:10E8F0008DF8143007ACFFF753FB0DF1340CBCE876
:10E900000F000FC4DCF80030237006A8FFF75AFB95
:10E9100080B133680DACD3F82490124B07AD0C9343
:10E920000FCD0FC42B683A462370304643460CA9DE
:10E93000C84705460098FDF7FBFA284613B0BDE826
:10E94000F083E368002BC3D14FF6FF70D4F810902A
:10E95000FDF730FC8145BBD104F11401AAE725463F
:10E96000E8E700BF7CFB3F0238B5436905461A68FB
:10E97000002A10DAB3F88620B3F884309A420AD11C
:10E9800003681B699847044628B92B6828461B6B07
:10E990009847204638BD0120FCE710B5436904467E
:10E9A000B3F88620B3F884309A4205D06369B3F88F
:10E9B00084201344187910BD03681B699847002808
:10E9C000F4D14FF0FF30F6E7F8B543691746B3F8D6
:10E9D0008620B3F8843005469A420E4616D06969FF
:10E9E0003046B1F88430B1F88640E41ABC4228BF02
:10E9F0003C4604332246194400F0F4FC6A69B2F83C
:10EA000084302344A2F884302046F8BD03681B6993
:10EA100098470028E3D14FF0FF34F5E7002342691F
:10EA2000A2F884304269A2F886307047F0B50C46EF
:10EA30001F4603688BB01B6B054616469847237D1F
:10EA40000622042B0CBF02200A200121FDF73AFD0B
:10EA50006B6918606B691B68002B07DA2B68284606
:10EA60001B6B0024984720460BB0F0BD2846FFF7EB
:10EA7000D5FFB7B1002303A9F8B20393ADF8103066
:10EA8000FDF7AAFA0028E9D106236869009341F24C
:10EA90000B0240F6FF71006803ABFDF7CDFC0028C8
:10EAA000DCD11C22002103A800F0C3FC237D042B31
:10EAB0001DD14FF407733046ADF80C30FDF788FBDD
:10EAC000ADF80E006068FDF775FB04906B691C22C1
:10EAD000186803A9FDF7CCFC0028BFD16D69043488
:10EAE0008C350FCC0FC5236801242B70BBE740F693
:10EAF0001C233046ADF80C30FDF76AFB05AEADF8CF
:10EB00000E00231D04F114073246186859680833B3
:10EB100003C2BB421646F7D1D8E7000030B54269C0
:10EB20000446B2F886308BB02BB1B2F884209A42FA
:10EB300001D1FFF773FF61690868002818DBB1F89D
:10EB400086507F2D14D804310823C5F18002294452
:10EB5000FDF79CFC002813DD6369B3F886200AB931
:10EB6000A3F884206369B3F886201044A3F88600D4
:10EB70006369B3F88600B3F88430C01A0BB030BDB7
:10EB8000FDF7FAFE03680B2BF2D0FDF7F5FE0368E4
:10EB90000B2BEDD020230025CDE90235FDF7ECFE4F
:10EBA000036802AA0193084B3220084900932B46C0
:10EBB000FDF722FD63691868FDF74CFC4FF0FF324A
:10EBC00063691A60D4E700BF2FFC3F0228FC3F02B4
:10EBD00010B5436904461868002801DBFDF73AFCCC
:10EBE0004FF0FF32636900211A60606911228C3096
:10EBF00000F01FFC2046BDE81040FFF70FBF0023C8
:10EC000010B504460160C0F884308830FFF7BAF9C7
:10EC1000204610BD00234FF47A7273B5C0E901326B
:10EC20000E4A0361026043610446AC200191FCF787
:10EC30002AFC051E05F10C0608D00123C5E90133A5
:10EC4000074B304601992B60FFF7D9FF2046C4E9F6
:10EC50000565FFF7E3FE02B070BD00BF64FC3F0234
:10EC600048FC3F0210B504464FF0FF31FFF7D2FFDA
:10EC7000204610BD10B504460068002801DBFDF7F2
:10EC8000E9FB204610BD0C30FFF7F4BF00224068BE
:10EC90001146FDF775BD002240681146FDF7A8BD7D
:10ECA000002240681146FDF7BFBD00224068FDF715
:10ECB000ADBD0022406881F00101FDF78BBD00234E
:10ECC00040681A461946FDF777BD002340681A468A
:10ECD0001946FDF763BD002240681146FDF734BDBB
:10ECE000002202214068FDF73DBD002340681A461E
:10ECF000FDF71CBD0422024B5A60024A1A6070479D
:10ED00007CAF0710B4FC3F02002340681A46FDF7B1
:10ED10000DBD002202214068FDF724BD002240689D
:10ED20001146FDF711BD002240681146FDF728BDD0
:10ED3000002340681A461946FDF730BD002340689D
:10ED40001A461946FDF738BD00214068FDF77ABD27
:10ED500000214068FDF784BD0022406881F0010178
:10ED6000FDF738BD00224068FDF750BD0022406825
:10ED70001146FDF759BD002240681146FDF738BD28
:10ED800000214068FDF788BD2DE9F0430026984634
:10ED900099B00D4614460746FFF7F4F81C22314699
:10EDA00011A8039600F045FBB8F1000F2CD14023C9
:10EDB00068681093049618B104A9C0B2FDF71AF957
:10EDC000049B20460093002103AB10AAFDF7CCF86A
:10EDD000044600284DD1024601216868FDF7D0FCA9
:10EDE0000221804622466868FDF7CAFC214681461A
:10EDF000039E002E3DD000293BD17368022B05D025
:10EE00000A2B13D0F669F4E71D4BD1E7B8F1000FD8
:10EE1000F8D071690AA804313C1D0BADFFF702F967
:10EE20000FCD0FC42B6841462370EBE7B9F1000FFB
:10EE3000E8D0102205A8746900F0FBFA062305AD9E
:10EE40008DF8243004F1080318342A4618685968EC
:10EE5000083303C2A3421546F7D105A90AA83C1DF1
:10EE60000BADFFF79DF80FCD0FC42B6849462370FB
:10EE7000C8E70398FDF75CF8384619B0BDE8F083A1
:10EE800040000040033802289ABF024B53F820008C
:10EE900001487047F0FC3F0284AF071008B500221C
:10EEA0004068FDF7EBFCBDE80840FFF7EBBF000052
:10EEB000024B034A1A6000225A60704784AF071061
:10EEC00004FD3F021B2837B5044602D9002003B0D9
:10EED00030BDA0F10F03022B0BD9012821D800F07F
:10EEE00035F90021007CFDF77DFA80F00100C0B209
:10EEF000EDE7114DD5E88F1F11F001010BD1284628
:10EF00000191FDF763FD019928B10C48FDF7E0FD83
:10EF10002846FDF769FD094B1878FDF7EFFA002840
:10EF2000D4D1083C012C05D800F064F8007CFDF732
:10EF3000B1F9DAE70120CAE78CAF071090AF0710EC
:10EF40001B2838B504460D460AD8FF2908D0FFF71C
:10EF5000B9FF28B129462046BDE83840FDF712B870
:10EF600038BD38B504460D46FDF71AF8FF2810D015
:10EF7000062804D84D2323FA00F0C30709D42046FD
:10EF8000FFF7A0FF28B129462046BDE83840FDF72D
:10EF900015B838BD7047000038B5142504462A4618
:10EFA000002100F046FA25804025074928462581A2
:10EFB000258200F0F1F804496060284600F0ECF882
:10EFC000E060204638BD00BF40FD3F0270477047FB
:10EFD00010B50446FFF7E0FF204610BD10B504460B
:10EFE000FFF7DAFF204610BD10B50446FFF7D4FF47
:10EFF000204610BD30B50E4D87B0D5E88F1F11F0FB
:10F00000010411D12846FDF7E1FC68B101A8FFF722
:10F01000DFFF214601AA0748FFF7B0FA2846FDF7AF
:10F02000E3FC054800F0D0F9024807B030BD00BF4E
:10F0300098AF0710A4AF071045F13F0210B50D4C73
:10F0400086B0D4E88F3FDB0711D42046FDF7BEFC25
:10F0500068B101A8FFF7C2FF012101AA0648FFF726
:10F060008DFA2046FDF7C0FC044800F0ADF90248D7
:10F0700006B010BD9CAF0710B8AF07107FF13F027C
:10F0800010B5FFF7DBFF074B044653B1FFF794FAC7
:10F0900038B1236820461B699847002801DD00E04D
:10F0A00000BF10BD0000000010B50D4C86B0D4E8C4
:10F0B0008F3FDB0711D42046FDF788FC68B101A81B
:10F0C000FFF792FF022101AA0648FFF757FA2046F0
:10F0D000FDF78AFC044800F077F9024806B010BD3D
:10F0E000A0AF0710CCAF07107DF13F0210B5FFF7BE
:10F0F000DBFF074B044653B1FFF75EFA38B12368D4
:10F1000020461B699847002801DD00E000BF10BDC4
:10F11000000000007047000038B50A4B0446036049
:10F12000012309494361202000F036F82025606062
:10F1300005492846A56000F02FF8C4E903052046DC
:10F1400038BD00BF1800010040FD3F0230B50E4D34
:10F1500087B0D5E88F1F11F0010411D12846FDF7C3
:10F1600035FC68B16846FFF7D7FF6A462146074875
:10F17000FFF762FA2846FDF737FC054800F024F94E
:10F18000024807B030BD00BFE4AF0710E8AF07107A
:10F19000C5F23F02FCF777B9FCF777B908B5FDF780
:10F1A000DDFB0000014900F0F9B800BF5CFD3F0243
:10F1B0007FB50024102315461268CDE90234036898
:10F1C000CDE900449E696B46B0479DF8043003F0DA
:10F1D0000603062B05BF009B012020462B6004B0D0
:10F1E00070BD0098904214BF0120062070470000B7
:10F1F000034B10B50446036000F0CDF8204610BD67
:10F200009CFD3F0210B50446FFF7F2FF082120469F
:10F21000FCF73DF9204610BD2DE9F041DDF81880DE
:10F220001F4606461546DDE90834984507D107997B
:10F2300000F0B4F818B165710020BDE8F0813946DE
:10F24000304600F0ABF80028F6D00123C4F8008067
:10F250002571A371F0E738B515461C4600F09EF8FD
:10F2600020B108232560E3600623237138BD73B500
:10F2700005460C461E46019200F090F850B9032E48
:10F2800008D823682946019A20465B6902B0BDE888
:10F290007040184702B070BD034B10B504460360C0
:10F2A000FFF7A6FF204610BDFCFD3F0210B5044647
:10F2B000FFF7F2FF0C212046FCF7E9F8204610BDCD
:10F2C000F7B5089F05460E46144697420AD0A8682F
:10F2D000314602680897156A2246AC4603B0BDE87D
:10F2E000F04060471946019300F058F8019B002850
:10F2F000EDD0062003B0F0BD2DE9F14F0D461946C3
:10F30000814617469846DDE90A4BDDE90CA600F078
:10F3100045F890B1002D3460377109DB61198A45D9
:10F320000CBF06210121B171002001B0BDE8F08FB2
:10F330000235F9D10123B371F6E7544506D1594698
:10F34000484600F02BF808B17771EDE7D9F80800CE
:10F350003A4629460368CDE90CA6CDE90A4BDC699B
:10F360004346A44601B0BDE8F04F60472DE9F041A7
:10F3700007460C4615461E46FFF76DFF48B9B868AC
:10F380002A46214603689F693346BC46BDE8F041E2
:10F390006047BDE8F081704700207047814208B5A2
:10F3A0000ED0406803782A2B0CD049680B782A2BA2
:10F3B00008BF0131FCF738F8B0FA80F0400908BD09
:10F3C0000120FCE70020FAE7002301461A46184610
:10F3D000FCF778B8024B1844407800F0970070476B
:10F3E000C9FE3F020A44431E914200D1704710B546
:10F3F00011F8014B914203F8014FF9D110BD884239
:10F4000010B501EB020402D98442234607D8431EFB
:10F41000A14208D011F8012B03F8012FF8E70244AC
:10F4200001468A4200D110BD13F8014D02F8014D8A
:10F43000F7E702440346934200D1704703F8011BEB
:10F44000F9E7000038B5104B04461D68AB6BB3B943
:10F450001820FDF74BFA0246A86320B90B4B422156
:10F460000B48FDF797FA0B490B4BC0E900130B4B08
:10F47000002183600B2383810120C2E90401AB6B6F
:10F4800000221C615A6138BDB4AA071035FE3F0244
:10F490004CFE3F020E33CDAB34126DE6ECDE0500C0
:10F4A000C9B2034610F8012B1AB18A42F9D11846A5
:10F4B0007047002918BF0023F9E710B50446FFF78D
:10F4C000EFFF18B92046FBF7B9FF204410BD0346F3
:10F4D00011F8012B03F8012B002AF9D1704710B560
:10F4E0007AB103460139841813F8010B11F8012F82
:10F4F000904201D1A34201D1801A10BD0028F3D15E
:10F50000FAE71046F9E738B503460C4669B9BDE895
:10F510003840FFF7C5BF431C054621461846FFF794
:10F52000BFFF0028F7D1284638BD0025F5E70000C9
:10F53000012B2DE9F04701D0242B06D9FDF71CFA49
:10F54000162303600020BDE8F0870D46DFF8E0C019
:10F550002E4615F8014B14F80C7017F00807F7D178
:10F560002D2C32D12C780127B51C002B5BD0102B11
:10F5700009D1302C07D12C7804F0DF04582C4DD160
:10F580006C781023023507F100484FF0000C08F1A9
:10F59000FF386646B8FBF3F903FB198AA4F1300E75
:10F5A000BEF1090F16D87446A34224DDBCF1000F4A
:10F5B0001EDBB1451CD301D1A24519DB06FB034676
:10F5C0004FF0010C15F8014BE8E72B2C04BF2C7809
:10F5D000B51CCAE7A4F1410EBEF1190F01D8373CA2
:10F5E000E2E7A4F1610EBEF1190F04D8573CDBE746
:10F5F0004FF0FF3CE6E7BCF1000F05DA2223464658
:10F60000036042B930469EE707B17642002AF9D03E
:10F61000BCF1000F00D0691E1160F3E73024002B0D
:10F62000B1D10823AFE7302CA5D00A23ABE700BF48
:10F63000CAFE3F0213460A46014602480068FFF729
:10F6400077BF00BFB4AA0710FDB53F0225B63F0241
:10F6500029B63F020000000043616C6C206F6E20F1
:10F6600070757265207669727475616C00496E738D
:10F67000756666696369656E742064617461206192
:10F680007661696C61626C652066726F6D204144C1
:10F69000584C3334332E004144584C333433206EAD
:10F6A0006F7420666F756E642E204465766963659D
:10F6B0002049443A20307825303258004144584C93
:10F6C0003334332064657465637465642E20446547
:10F6D000766963652049443A2030782530325800F5
:10F6E0004144584C33343320696E697469616C69E4
:10F6F0007A6174696F6E20636F6D706C6574652ECE
:10F700000057692D4669206E6F74207265616479B7
:10F710002E005472616E736D69742063616C6C6548
:10F7200064207769746820656D70747920627566ED
:10F730006665722E20536B697070696E67207472F3
:10F74000616E736D697373696F6E2E00256C752C15
:10F75000252E32662C252E32662C252E32660A0086
:10F76000436F6E6E656374656420746F2073657299
:10F770007665722E205374617274696E67206461BD
:10F78000746120636F6C6C656374696F6E2E2E2ECE
:10F790000053616D706C6520726174653A20256458
:10F7A00020487A004661696C656420746F20636F3D
:10F7B0006E6E65637420746F207365727665722E49
:10F7C000004461746120636F6C6C656374696F6E73
:10F7D00020636F6D706C6574652E004661696C65A1
:10F7E0006420746F20696E697469616C697A652040
:10F7F0004144584C33343321004144584C33343362
:10F8000020696E697469616C697A65642E2057613C
:10F810006974696E6720666F7220627574746F6EAA
:10F820002070726573732E2E2E0000000000000001
:10F8300000000000A5BA3F02E9BA3F02D3B83F0278
:10F8400000000000000000000000000000000000B8
:10F8500045B63F02D1B83F020000000000000000A2
:10F8600031BA3F0265BA3F02D1DB3F0279DD3F0288
:10F87000000000000000000013CC3F0209CC3F0252
:10F88000FFCB3F02F5CB3F02E9CB3F02DDCB3F028E
:10F89000F9EE3F0201EF3F02D1CB3F02C9CB3F025D
:10F8A000BFCB3F02B5CB3F024DF03F0231EF3F02ED
:10F8B00039EF3F02000000000000000000000000DF
:10F8C0000000000011CF3F0213CF3F02D1CE3F0214
:10F8D0002FE33F02626175640053657269616C00D9
:10F8E00053657269616C31004A534F4E53747265AF
:10F8F000616D4C6F6748616E646C65720061707019
:10F9000000253031307520005D20002C2000282992
:10F910003A2000205B00636F6465203D200025696C
:10F920000064657461696C73203D20000D0A006DF0
:10F930000066006C6E00666E007400636F646500A4
:10F9400064657461696C0000000000000000000044
:10F9500059D43F0271D43F02D1DB3F0279DD3F022F
:10F96000000000000000000085D43F0299D43F024F
:10F97000B1DD3F02DBCF3F020000000000000000CD
:10F98000EDCF3F0213D03F0235DB3F02DDCF3F0218
:10F990000000000000000000EBCF3F0221D03F023A
:10F9A000C1D33F0243D03F0225592D256D2D25643B
:10F9B0005425483A254D3A2553257A0061736374DE
:10F9C000696D65000000000000000000D1E03F020A
:10F9D000C1E03F02C3E03F02000000000000000061
:10F9E000FBE13F0263E23F0239E23F02E5CE3F0224
:10F9F0002BE23F02FDE13F020DE23F025DE23F02EA
:10FA0000B1CF3F021DE23F02F5E13F0225750075CF
:10FA100025303478000000000000000000000000E5
:10FA2000B1E63F021DE73F02F5E63F02E5CE3F02A9
:10FA3000C5E63F02E1E63F02D3E63F02EFE63F02C2
:10FA4000B1CF3F02B3E63F02B7E63F02000000003D
:10FA5000000000006FE73F02B9E73F0291E73F0275
:10FA600071E73F0299E73F02A1E73F02A9E73F02A2
:10FA7000B1E73F02B1CF3F02776972696E670072EA
:10FA8000656376206572726F72203D2025640000E8
:10FA9000000000000000000031E93F0255E93F028C
:10FAA00037EE3F0263E93F0235E93F020000000004
:10FAB0000000000039DF3F0251DF3F02ADE83F02A6
:10FAC000C7E83F02CDEC3F02F1E83F024BEB3F02BB
:10FAD00025E93F02B1CF3F02DDEB3F021DEA3F02C5
:10FAE00079EB3F0281ED3F0219EB3F0227E93F022C
:10FAF000D9E83F0269E93F02FDE93F02000000004A
:10FB0000000000009BEE3F0291EE3F0287EE3F02B5
:10FB10003DEE3F027BEE3F026FEE3F02F9EE3F0209
:10FB200001EF3F0263EE3F025BEE3F0251EE3F0208
:10FB300047EE3F024DF03F0231EF3F0239EF3F0207
:10FB4000D4AE07107CAF071084AF07100000000090
:10FB500000000000B9EE3F02C3EE3F02CDEE3F02CF
:10FB6000D7EE3F02E1EE3F02EDEE3F02F9EE3F023B
:10FB700001EF3F0209EF3F0215EF3F021DEF3F0289
:10FB800027EF3F024DF03F0231EF3F0239EF3F02D6
:10FB900000537431395F53705F6D616B655F7368DB
:10FBA000617265645F746167000000009CFD3F0244
:10FBB00041FD3F02FCFD3F0270FD3F0220FE3F027F
:10FBC0004E31305F5F637878616269763131375FDB
:10FBD0005F636C6173735F747970655F696E666F84
:10FBE000450000000000000064FD3F02A1F33F0259
:10FBF000B5F33F0249F53F0249F53F021FF43F02CA
:10FC000061F33F0207F43F02C9F33F0293F33F025F
:10FC1000FCFD3F02CCFD3F0264FD3F024E31305FF0
:10FC20005F637878616269763132305F5F73695FF4
:10FC3000636C6173735F747970655F696E666F453D
:10FC40000000000000000000C0FD3F0249F43F0238
:10FC50005DF43F0249F53F0249F53F021FF43F02C0
:10FC600061F33F021DF53F02A9F43F0271F43F0228
:10FC70009CFD3F0228FE3F02537439747970655F22
:10FC8000696E666F005245454E54206D616C6C6F15
:10FC90006320737563636565646564002F6D6E74BE
:10FCA0002F776F726B73706163652F776F726B73F1
:10FCB000706163652F4743432D31302D7069706546
:10FCC0006C696E652F6A656E6B696E732D47434371
:10FCD0002D31302D706970656C696E652D34385F1B
:10FCE00032303230313132345F31363036313830C3
:10FCF0003634312F7372632F6E65776C69622F6EA5
:10FD000065776C69622F6C6962632F7374646C69C8
:10FD1000622F72616E642E6300002020202020205C
:10FD200020202028282828282020202020202020AB
:10FD300020202020202020202020881010101010AB
:10FD400010101010101010101010040404040404FB
:10FD500004040404101010101010104141414141DE
:10FD60004101010101010101010101010101010143
:10FD700001010101011010101010104242424242D4
:10FD80004202020202020202020202020202020213
:10FD900002020202021010101020000000000000F9
:10FDA0000000000000000000000000000000000053
:10FDB0000000000000000000000000000000000043
:10FDC0000000000000000000000000000000000033
:10FDD0000000000000000000000000000000000023
:10FDE0000000000000000000000000000000000013
:10FDF0000000000000000000000000000000000003
:10FE000000000000000000000000000000000000F2
:10FE1000000000000000000000000000A5BF3F023D
:10FE20001DCC3F0271CC3F02BDCC3F02C1CE3F0290
:10FE3000C1DB3F0225DF3F0265DF3F0291E83F0261
:08FE4000A5EE3F0261F03F0254
:10FE4800000000022CAB0710D31B0000BCAC07104D
:10FE580030FB3F0248FB3F026CFB3F02B8AA071089
:10FE6800000000000000000000000000000000008A
:10FE7800000000000000000000000000000000007A
:10FE8800000000000000000000000000000000006A
:10FE9800000000000000000000000000000000005A
:10FEA800000000000000000000000000000000004A
:10FEB800000000000000000000000000000000003A
:04FEC8000000000036
:10FFBE000200100000B05F08A8B05F0858B23F0200
:10FFCE0001000A00FFFFFFFFFFFF00000102030414
:10FFDE0005060708090A0B0C0D0E0F10111213144B
:0EFFEE0015161718191A1B1C1D1E1F203E0089
:04FFFC0078563412ED
:04000005085FB018C8
:00000001FF
